:020000040800F2
:1000000000500020811C00080104000803040008BF
:1000100005040008070400080904000800000000A7
:100020000000000000000000000000000B040008B9
:100030000D040008000000000F040008110400086F
:10004000C91C0008C91C0008C91C0008C91C0008FC
:10005000C91C0008C91C0008C91C0008C91C0008EC
:10006000C91C0008C91C0008C91C0008C91C0008DC
:10007000C91C0008C91C0008C91C0008C91C0008CC
:10008000C91C0008C91C0008C91C0008C91C0008BC
:10009000C91C0008C91C0008C91C0008C91C0008AC
:1000A000C91C000819040008C91C0008C91C000864
:1000B000C91C0008C91C0008C91C0008C91C00088C
:1000C000C91C0008C91C0008C91C0008C91C00087C
:1000D000C91C000829040008C91C0008C91C000824
:1000E000C91C0008C91C0008C91C00080000000049
:1000F0000000000000000000000000000000000000
:0C01000000000000000000005FF808F1A3
:10010C000348044B834202D0034B03B1184770479A
:10011C006000002060000020000000000548064B35
:10012C001B1AD90F01EBA301491002D0034B03B1E9
:10013C00184770476000002060000020000000009D
:10014C0010B5064C237843B9FFF7DAFF044B13B113
:10015C000448AFF300800123237010BD6000002021
:10016C00000000005C26000808B5054B1BB10549D2
:10017C000548AFF30080BDE80840FFF7CFBF00BFD4
:10018C0000000000640000205C2600080268064B9A
:10019C009A4200D07047054B1B78002BFAD1034BC9
:1001AC0001221A70F6E700BF002C01407D000020F0
:1001BC0008B502681A4B9A4205D0012219491A480F
:1001CC0000F0ADFE08BD174B1B78A3F13102D2B283
:1001DC00082A0BD9732B1BD0702BEED1134B1B7829
:1001EC00012BEAD8114B02221A70E6E7303B4FF490
:1001FC007A7202FB03F359080D4A11600D4A12681A
:10020C00013BD362D16A01310B4801F0B7FCD4E752
:10021C00064B1B78022BD0D1044B01221A70CCE771
:10022C00003801407C000020840100207D0000206B
:10023C0000000020C80100207426000810B50446F8
:10024C000146054801F09AFC204600F0CFFE034819
:10025C0001F094FC002010BD8C260008A426000898
:10026C0008B5024801F08AFC72B6FEE7B026000819
:10027C0000B591B02822002106A801F059FD0023F9
:10028C0001930293039304930593012206924FF476
:10029C00803307930A9202220D920E934FF4E013CF
:1002AC000F9306A800F0DAFE80B90F230193022108
:1002BC000291002303934FF480620492059301A8EA
:1002CC0001F00CF920B911B05DF804FBFFF7C8FF81
:1002DC00FFF7C6FF10B582B000F064FEFFF7C8FF51
:1002EC0001F0D6FB01F0ECFB01F068FC334801F0A7
:1002FC0045FC334800F0EAF820B1324801F03EFCEE
:10030C00FFF7AEFF01223049304800F008FEF8B18B
:10031C002F4801F033FCFFF7A3FF2E4801F02EFC11
:10032C00274800F007F900F075FE2B4BDA6942F014
:10033C008052DA61DB6903F080530093009B01214A
:10034C00002001F093FB00F06CFE244801F016FC39
:10035C00234B1B78012B1CD0022BDED0002BF7D1AA
:10036C00204801F00BFC00F055FE1B4BDA6942F003
:10037C008052DA61DB6903F080530193019B012108
:10038C00002001F073FB00F04CFE174801F0F6FB67
:10039C00DEE7164C2168164801F0F0FB2068FFF7E9
:1003AC004DFF0028D4D10E4B1B78012BD0D10C4B18
:1003BC0000221A70024800F089F8C9E7BC26000830
:1003CC00C8010020D42600087C00002084010020F5
:1003DC00EC2600080027000800100240182700082F
:1003EC007D0000203C270008582700080000002052
:1003FC007C270008FEE7FEE7FEE7FEE7FEE7704716
:10040C007047704708B500F0DFFD08BD08B502481D
:10041C0000F0ADF808BD00BFC801002008B50248C7
:10042C0000F060FC08BD00BF8401002082B00E4BC0
:10043C009A6942F001029A619A6902F001020092F3
:10044C00009ADA6942F08052DA61DB6903F080537A
:10045C000193019B054A536823F0E06343F000735A
:10046C00536002B0704700BF001002400000014012
:10047C0010B4036A046A24F001040462846924F051
:10048C00F00C4CEA021223F00A030B438261036264
:10049C0010BC704710B4036A23F010030362846924
:1004AC00036A24F4704C4CEA023223F0A00343EAB2
:1004BC0001138261036210BC7047836823F07003E0
:1004CC000B4343F0070383607047000090F83D3006
:1004DC00DBB2012B27D1022380F83D300268D368B0
:1004EC0043F00103D3600368114A934210D0B3F177
:1004FC00804F0DD0A2F59432934209D002F5806260
:10050C00934205D01A6842F001021A60002070472D
:10051C009A6802F00702062A07D01A6842F0010214
:10052C001A6000207047012070470020704700BF00
:10053C00002C01400268D36823F00103D3600368E8
:10054C00196A41F21112114208D1196A40F244425F
:10055C00114203D11A6822F001021A60012380F8BB
:10056C003D3000207047704770477047704710B59A
:10057C00044603681A6912F0020F11D0DA6812F0FF
:10058C00020F0DD06FF002021A610123037703688A
:10059C009B6913F0030F70D0FFF7E6FF002323775E
:1005AC0023681A6912F0040F12D0DA6812F0040FE3
:1005BC000ED06FF004021A610223237723689B6923
:1005CC0013F4407F5FD02046FFF7CEFF0023237744
:1005DC0023681A6912F0080F12D0DA6812F0080FAB
:1005EC000ED06FF008021A61042323772368DB69AD
:1005FC0013F0030F4ED02046FFF7B6FF00232377EE
:10060C0023681A6912F0100F12D0DA6812F0100F6A
:10061C000ED06FF010021A61082323772368DB6970
:10062C0013F4407F3DD02046FFF79EFF0023237735
:10063C0023681A6912F0010F03D0DA6812F0010F67
:10064C0036D123681A6912F0800F03D0DA6812F0E1
:10065C00800F34D123681A6912F0400F03D0DA6886
:10066C0012F0400F32D123681A6912F0200F03D018
:10067C00DA6812F0200F30D110BDFFF774FF20465E
:10068C00FFF773FF8AE72046FFF76DFF2046FFF761
:10069C006CFF9BE72046FFF766FF2046FFF765FFE0
:1006AC00ACE72046FFF75FFF2046FFF75EFFBDE794
:1006BC006FF001021A612046FFF768FDC1E76FF089
:1006CC0080021A61204600F026F9C3E76FF0400261
:1006DC001A612046FFF74AFFC5E76FF020021A6146
:1006EC00204600F017F9C7E703681B4A90420AD06E
:1006FC00B0F1804F07D0A2F59432904203D002F5AE
:10070C008062904203D123F070034A681343124A6B
:10071C0090420AD0B0F1804F07D0A2F594329042AB
:10072C0003D002F58062904203D123F44073CA686F
:10073C00134323F080034A69134303608B68C3623D
:10074C000B688362044B984202D0012343617047CB
:10075C000B690363F9E700BF002C014040B310B5EF
:10076C00044690F83D30F3B1022384F83D30214625
:10077C0051F8040BFFF7B8FF012384F8463084F8D6
:10078C003E3084F83F3084F8403084F8413084F8AF
:10079C00423084F8433084F8443084F8453084F88F
:1007AC003D30002010BD80F83C3001F043FADBE70F
:1007BC000120704710B4846824F47F4C42EA032271
:1007CC000A4342EA0C02826010BC704790F83C303D
:1007DC00012B66D010B50446012380F83C3002236F
:1007EC0080F83D300268936823F47F4323F077034D
:1007FC0093600B68602B40D022D8402B47D00BD98C
:10080C00502B0ED1CA6849680068FFF731FE5021A1
:10081C002068FFF752FE04E0202B0CD008D9302BB7
:10082C0009D0012384F83D30002084F83C0010BD31
:10083C000BB1102BF5D119462068FFF73EFEF0E7FF
:10084C00702B0ED0B3F5005FEBD1CB684A6889688A
:10085C000068FFF7AFFF2268936843F4804393600E
:10086C00DFE7CB684A6889680068FFF7A3FF226856
:10087C00936843F077039360D3E7CA6849680068CC
:10088C00FFF708FE60212068FFF717FEC9E7CA686A
:10089C0049680068FFF7ECFD40212068FFF70DFE6A
:1008AC00BFE702207047000090F83C20012A2CD0B2
:1008BC0010B40346012280F83C20022280F83D202F
:1008CC0002685068946820F0700C086840EA0C00CC
:1008DC0050601A680E4882420AD0B2F1804F07D09D
:1008EC00A0F59430824203D000F58060824204D19E
:1008FC0024F08004496821439160012283F83D2053
:10090C00002083F83C0010BC70470220704700BFE9
:10091C00002C0140704770470268D36823F4907331
:10092C00D3600268536923F001035361036B012BFD
:10093C0005D0202380F83E30002303637047026803
:10094C00D36823F01003D360F3E790F83D30DBB2AB
:10095C00212B01D0022070478368B3F5805F17D03C
:10096C00036A5A1C02621A7803685A60C38C9BB2E1
:10097C00013B9BB2C3844BB90268D36823F080035C
:10098C00D3600268D36843F04003D3600020704703
:10099C000369002BE4D1036A1B880268C3F30803C4
:1009AC005360036A02330362E0E7000010B50446AB
:1009BC000268136923F44053C1680B4313618368C5
:1009CC000269134342691A430168CB6823F4B0539C
:1009DC0023F00C031343CB600268536923F4407378
:1009EC0081690B4353610268134B9A4220D000F08B
:1009FC0031FE024602EB820202EB820263689B002C
:100A0C00B2FBF3F20D48A0FB02314909642303FB4E
:100A1C0011231B013233A0FB03035B0903F0F0022B
:100A2C0002EB011203F00F03216813448B6010BD1D
:100A3C0000F020FE0246DDE7003801401F85EB5137
:100A4C002DE9F84305460F4616469946DDF82080F9
:100A5C002B681C6837EA04040CBF01240024B44240
:100A6C001FD1B8F1FF3FF3D0B8F1000F05D000F063
:100A7C00B7FAA0EB09004045EAD92A68D36823F4F9
:100A8C00D073D3602A68536923F001035361202388
:100A9C0085F83D3085F83E30002385F83C30032046
:100AAC0000E00020BDE8F88358B310B5044690F878
:100ABC003D300BB3242384F83D302268D36823F4F3
:100ACC000053D3602046FFF771FF2268136923F4AB
:100ADC00904313612268536923F02A0353612268FF
:100AEC00D36843F40053D36000202064202384F89F
:100AFC003D3084F83E3010BD80F83C3000F0FAFFF9
:100B0C00D8E7012070472DE9F04182B01E4690F8DD
:100B1C003D30DBB2202B54D104460D4690460029C3
:100B2C0053D0002A53D090F83C30012B51D00123E4
:100B3C0080F83C3000230364212380F83D3000F022
:100B4C004FFA0746A4F82480A4F82680A368B3F5CE
:100B5C00805F05D04FF00008002384F83C3012E091
:100B6C00236913B14FF00008F6E7A8460025F3E718
:100B7C0038F8023B2268C3F308035360E28C92B24C
:100B8C00013A92B2E284E38C9BB273B100963B467D
:100B9C00002280212046FFF753FFE0B9002DE7D05B
:100BAC0015F8012B23685A60E8E700963B460022B3
:100BBC0040212046FFF744FF78B9202384F83D30CC
:100BCC0000E0022002B0BDE8F0810120FAE701202C
:100BDC00F8E70220F6E70320F4E70320F2E770477A
:100BEC0008B50168CA6822F04002CA60202280F869
:100BFC003D20FFF7F4FF002008BD704708B5406AA0
:100C0C000023C385C384FFF7F8FF08BD704790F835
:100C1C003E30DBB2222B60D18368B3F5805F46D0C7
:100C2C00826AB3F5805F04D0002B4DD10369002B91
:100C3C004AD103685B681370836A01338362C38D86
:100C4C009BB2013B9BB2C385002B48D100B583B04E
:100C5C000268D36823F02003D3600268D36823F4BE
:100C6C008073D3600268536923F00103536120231E
:100C7C0080F83E30036B012B2CD1002303630268F8
:100C8C00D36823F01003D36003681A6812F0100FB6
:100C9C0006D0002201921A6801925B680193019BB5
:100CAC00818DFFF7B3FF002003B05DF804FB0269F0
:100CBC00002AB5D1826A03685B68C3F3080313800A
:100CCC00836A02338362BAE703685B6803F07F03CD
:100CDC001370B1E7FFF76CFAE5E7022070470020CC
:100CEC007047000030B583B0044602681368D068C2
:100CFC00516913F00F0505D113F0200F02D010F03D
:100D0C00200F19D12DB111F0010119D110F4907FE0
:100D1C0016D1216B012975D013F0800F03D010F080
:100D2C00800F40F0D78013F0400F03D010F0400F2D
:100D3C0040F0D48003B030BD2046FFF768FFF9E7E0
:100D4C0013F0010F06D010F4807F03D0226C42F018
:100D5C000102226413F0040F04D019B1226C42F08A
:100D6C000202226413F0020F04D019B1226C42F07B
:100D7C000402226413F0080F07D010F0200F00D1EA
:100D8C0019B1226C42F008022264226C002AD1D0E4
:100D9C0013F0200F02D010F0200F21D123685B69D3
:100DAC0003F04003226C12F0080F00D123B320464D
:100DBC00FFF7B2FD23685A6912F0400F18D05A6938
:100DCC0022F040025A61A36B73B1464A5A63A06B7E
:100DDC0000F094FD0028ADD0A06B436B9847A9E7B9
:100DEC002046FFF714FFD9E72046FFF706FFA1E7DF
:100DFC002046FFF702FF9DE72046FFF7FEFE00238B
:100E0C00236497E713F0100F86D010F0100F83D0E7
:100E1C00002301931368019353680193019B536959
:100E2C0013F0400F32D0A16B0B685B689BB2002BA8
:100E3C0080D0A08D98427FF67DAFE3858B69202B07
:100E4C0008D1A18DE38D9BB2C91A89B22046FFF758
:100E5C00DDFE6FE7D36823F48073D3602268536997
:100E6C0023F0010353612268536923F0400353615B
:100E7C00202384F83E30002323632268D36823F0B8
:100E8C001003D360A06B00F017FDDAE7A38DE18DA2
:100E9C0089B25B1A99B2E38D9BB2002B3FF44AAF37
:100EAC0000293FF447AFD36823F49073D3602268D2
:100EBC00536923F001035361202384F83E3000234F
:100ECC0023632268D36823F01003D3602046FFF716
:100EDC009DFE2FE72046FFF738FD2BE72046FFF756
:100EEC007FFE27E7090C0008034681628285C285D4
:100EFC0000201864222283F83E2083F83C001968F5
:100F0C00CA6842F48072CA6019684A6942F00102E8
:100F1C004A611A68D36843F02003D360704708B560
:100F2C0090F83E30DBB2202B0DD171B17AB190F834
:100F3C003C30012B0DD0012380F83C30002303639F
:100F4C00FFF7D2FF00E0022008BD0120FCE70120E2
:100F5C00FAE70220F8E7000010B504460E4B1A78A9
:100F6C004FF47A73B3FBF2F30C4A1068B0FBF3F056
:100F7C0000F068FD68B90F2C01D901200AE00022AD
:100F8C0021464FF0FF3000F017FD054B1C60002090
:100F9C0000E0012010BD00BF040000200C00002068
:100FAC000800002008B5074A136843F010031360CB
:100FBC00032000F0EFFC0F20FFF7CEFFFFF736FA0F
:100FCC00002008BD00200240034A1168034B1B7827
:100FDC000B441360704700BF800000200400002009
:100FEC00014B1868704700BF8000002038B50446DC
:100FFC00FFF7F6FF0546B4F1FF3F02D0044B1B7818
:10100C001C44FFF7EDFF401BA042FAD338BD00BFD4
:10101C00040000204FF0E022136923F00203136157
:10102C0070474FF0E022136943F0020313617047DD
:10103C0082B0084B1B68084AA2FB03235B0A00FB27
:10104C0003F3019300BF019B5A1E0192002BF9D1AF
:10105C0002B070470C000020D34D6210002800F045
:10106C00F18170B582B00446036813F0010F2CD0E7
:10107C00994B5B6803F00C03042B1DD0964B5B68FB
:10108C0003F00C03082B12D06368B3F5803F41D0FA
:10109C00002B55D103F1804303F504331A6822F475
:1010AC0080321A601A6822F480221A6037E08A4B68
:1010BC005B6813F4803FE7D0874B1B6813F4003F49
:1010CC0003D06368002B00F0BF81236813F0020F7C
:1010DC0075D0814B5B6813F00C0F5FD07E4B5B6857
:1010EC0003F00C03082B54D02369002B00F08A80EA
:1010FC007A4B01221A60FFF773FF0546764B1B688B
:10110C0013F0020F75D1FFF76BFF401B0228F5D9C6
:10111C0003209EE1704A136843F4803313606368C4
:10112C0043B3FFF75DFF05466B4B1B6813F4003FA1
:10113C00CBD1FFF755FF401B6428F5D9032088E17C
:10114C00B3F5A02F09D0644B1A6822F480321A60D0
:10115C001A6822F480221A60E1E703F18043A3F5B8
:10116C003C331A6842F480221A601A6842F48032C6
:10117C001A60D4E7FFF734FF0546574B1B6813F48E
:10118C00003FA2D0FFF72CFF401B6428F5D90320A9
:10119C005FE1514B5B6813F4803FA5D14E4B1B684C
:1011AC0013F0020F03D02369012B40F04F814A4A00
:1011BC00136823F0F803616943EAC10313602368E1
:1011CC0013F0080F33D0A369002B5CD0434B0122E2
:1011DC00C3F88024FFF704FF05463F4B5B6A13F00E
:1011EC00020F21D1FFF7FCFE401B0228F5D903208A
:1011FC002FE1394A136823F0F803616943EAC1030C
:10120C001360DCE7354B00221A60FFF7E9FE054658
:10121C00314B1B6813F0020FD1D0FFF7E1FE401BDE
:10122C000228F5D9032014E10120FFF701FF236800
:10123C0013F0040F00F09680274BDB6913F0805FEE
:10124C0034D1254BDA6942F08052DA61DB6903F064
:10125C0080530193019B0125214B1B6813F4807F64
:10126C0026D0E368012B3DD0002B53D103F18043F2
:10127C0003F504331A6A22F001021A621A6A22F088
:10128C0004021A6233E0154B0022C3F88024FFF7E6
:10129C00A7FE0546104B5B6A13F0020FC7D0FFF791
:1012AC009FFE401B0228F5D90320D2E00025D3E78E
:1012BC000B4A136843F480731360FFF791FE0646E4
:1012CC00074B1B6813F4807FCBD1FFF789FE801B83
:1012DC006428F5D90320BCE0001002400000424213
:1012EC00007000405F4A136A43F001031362E36825
:1012FC0033B3FFF775FE06465A4B1B6A13F0020F09
:10130C002FD1FFF76DFE801B41F288339842F3D941
:10131C0003209EE0052B09D0524B1A6A22F00102E1
:10132C001A621A6A22F004021A62E0E74D4B1A6A3A
:10133C0042F004021A621A6A42F001021A62D6E7FB
:10134C00FFF74EFE0646474B1B6A13F0020F08D000
:10135C00FFF746FE801B41F288339842F3D90320F5
:10136C0077E0E5B9E369002B72D03E4A526802F08F
:10137C000C02082A56D0022B17D03B4B00221A66BF
:10138C00FFF72EFE0446374B1B6813F0007F47D047
:10139C00FFF726FE001B0228F5D9032059E0314A3D
:1013AC00D36923F08053D361DCE72F4B00221A66FC
:1013BC00FFF716FE05462B4B1B6813F0007F06D07B
:1013CC00FFF70EFE401B0228F5D9032041E0236AEB
:1013DC00B3F5803F1AD023494B6823F47413226A67
:1013EC00606A024313434B601F4B01221A66FFF7DE
:1013FC00F7FD04461B4B1B6813F0007F0ED1FFF763
:10140C00EFFD001B0228F5D9032022E0154A536892
:10141C0023F40033A1680B435360DCE7002018E091
:10142C00002016E0012B16D00E4B5B6803F48031C4
:10143C00226A914211D103F47013626A93420ED165
:10144C00002006E001207047012002E0012000E0AE
:10145C00002002B070BD0120FBE70120F9E701205C
:10146C00F7E700BF001002400000424286B0174B65
:10147C000FCB0DF1180C0CE90F0040F20123ADF865
:10148C000430134B5B6803F00C02082A02D011489D
:10149C0006B07047C3F3834218326A4412F8100C3A
:1014AC0013F4803F0DD00A4B5B68C3F340431833F1
:1014BC006B4413F8143C074A02FB00F0B0FBF3F04A
:1014CC00E6E7054B03FB00F0E2E700BF98270008B6
:1014DC000010024000127A0000093D00002800F0C4
:1014EC00A08070B50D460446524B1B6803F00703F1
:1014FC008B420BD24F4A136823F007030B43136044
:10150C00136803F007038B4240F08D80236813F0BF
:10151C00020F17D013F0040F04D0474A536843F45A
:10152C00E0635360236813F0080F04D0424A5368F9
:10153C0043F460535360404A536823F0F003A168AE
:10154C000B435360236813F0010F31D06368012BF8
:10155C0020D0022B25D0384A126812F0020F64D02A
:10156C0035494A6822F0030213434B60FFF738FDFC
:10157C000646314B5B6803F00C036268B3EB820FD9
:10158C0016D0FFF72DFD801B41F288339842F0D91D
:10159C00032045E0284A126812F4003FE0D10120F4
:1015AC003EE0254A126812F0007FD9D1012037E0C5
:1015BC00204B1B6803F00703AB420AD91D4A136882
:1015CC0023F007032B431360136803F00703AB42AC
:1015DC002DD1236813F0040F06D0174A536823F457
:1015EC00E063E1680B435360236813F0080F07D0E6
:1015FC00114A536823F46053216943EAC1035360D1
:10160C00FFF734FF0C4B5B68C3F303130B4AD35C3B
:10161C00D8400B4B18600B4B1868FFF79DFC002053
:10162C0070BD012070470120FAE70120F8E7012086
:10163C00F6E700BF0020024000100240AC27000873
:10164C000C00002008000020014B1868704700BFF8
:10165C000C00002008B5FFF7F7FF044B5B68C3F3E1
:10166C000223034AD35CD84008BD00BF00100240DF
:10167C00BC27000808B5FFF7E7FF044B5B68C3F312
:10168C00C223034AD35CD84008BD00BF00100240FF
:10169C00BC27000870B582B00024A446A6E0804D9B
:1016AC00AB4210D007D97F4DAB420CD005F580353D
:1016BC00AB4208D013E0A5F58015AB4203D005F57D
:1016CC007025AB4207D18B68002B58D0012B51D021
:1016DC004261082403E0A5F58015AB42F3D0BEF1BE
:1016EC00FF0F4ED80646BEF1FF0F4CD84FEA8C02C6
:1016FC0033680F25954023EA050304FA02F21343DD
:10170C0033604B6813F0805F6ED0674B9A6942F080
:10171C0001029A619B6903F001030193019B4FEA5B
:10172C009C02951C614B53F825600CF00305AD0031
:10173C000F23AB4026EA03065D4B984229D003F5F4
:10174C008063984200F08E8003F58063984200F02D
:10175C008B8003F58063984219D004231AE0CC687F
:10176C00BDE7CC680434BAE7CC680834B7E7CC687A
:10177C000C34B4E702610824B1E70024AFE7042479
:10178C00ADE7061DAFE7ACF108029200B0E703230A
:10179C0000E00023AB4033430232444D45F8223085
:1017AC004B6813F4803F61D0424A136843EA0E033E
:1017BC0013604B6813F4003F5ED03E4A536843EA13
:1017CC000E0353604B6813F4801F5BD0394A936847
:1017DC0043EA0E0393604B6813F4001F58D0354A4C
:1017EC00D36843EA0E03D3600CF1010C0B6833FA97
:1017FC000CF253D0012202FA0CF203EA020E32EA86
:10180C000303F1D14B68122B3FF649AF122B3FF675
:10181C0066AF01A555F823F0D31600086B17000826
:10182C007517000887170008EB160008EB16000860
:10183C00EB160008EB160008EB160008EB16000878
:10184C00EB160008EB160008EB160008EB16000868
:10185C00EB160008EB160008EB1600086F170008D3
:10186C007B170008012395E7022393E7114A1368BD
:10187C0023EA0E0313609CE70E4A536823EA0E0317
:10188C0053609FE70B4A936823EA0E039360A2E729
:10189C00084AD36823EA0E03D360A5E702B070BDF3
:1018AC000000221000003110001002400000014026
:1018BC000008014000040140034690F82120022A50
:1018CC0006D004228263002280F820200120704779
:1018DC0001680A6822F00E020A6001680A6822F0A8
:1018EC0001020A60026CC06B012101FA02F2426033
:1018FC0083F82110002083F82000704708B590F879
:10190C002130022B03D004238363012008BD02681D
:10191C00136823F00E0313600268136823F00103AD
:10192C0013600368194A934214D0143293421FD0A7
:10193C00143293421ED0143293421ED0143293426E
:10194C001ED01432934202D04FF0807203E04FF459
:10195C00801200E001220E4B5A60012380F82130E6
:10196C00002380F82030436B6BB198470020CDE703
:10197C001022F0E74FF48072EDE74FF48052EAE763
:10198C004FF48032E7E70020C0E700BF08000240B8
:10199C0000000240074AD36823F4E0631B041B0CCD
:1019AC00000200F4E060034343F0BF6343F40033F0
:1019BC00D360704700ED00E000B5194BDB68C3F352
:1019CC000223C3F1070CBCF1040F28BF4FF0040C29
:1019DC0003F1040EBEF1060F18D9033B4FF0FF3E86
:1019EC000EFA0CFC21EA0C0199400EFA03FE22EAD5
:1019FC000E020A4300280BDB1201D2B200F1604048
:101A0C0000F5614080F800235DF804FB0023E5E756
:101A1C0000F00F001201D2B2024B1A54F4E700BFCF
:101A2C0000ED00E014ED00E0002807DB00F01F02E1
:101A3C00400901239340024A42F82030704700BF0E
:101A4C0000E100E00138B0F1807F0BD24FF0E023D1
:101A5C005861054AF02182F8231000209861072272
:101A6C001A6170470120704700ED00E0064A1369C7
:101A7C0023F004031361012903D040BF20BF20BF12
:101A8C00704730BF704700BF00ED00E070470000AA
:101A9C0082B00A4B9A6942F020029A619A6902F06C
:101AAC0020020092009A9A6942F004029A619B69A2
:101ABC0003F004030193019B02B070470010024035
:101ACC0008B50A480A4B03604FF4E1334360002326
:101ADC008360C36003610C2242618361C361FEF7C2
:101AEC00E3FF00B908BDFEF7BBFBFBE78401002058
:101AFC000038014030B587B0002302930393049360
:101B0C00059302681B4B9A4201D007B030BD03F518
:101B1C0058439A6942F480429A619A6902F480426D
:101B2C000092009A9A6942F004029A619B6903F050
:101B3C0004030193019B4FF400730293022303935C
:101B4C00032305930C4D02A92846FFF7A3FD4FF480
:101B5C008063029300240394049402A92846FFF79F
:101B6C0099FD224621462520FFF726FF2520FFF769
:101B7C005BFFCAE700380140000801400FB430B5E4
:101B8C0083B006AB53F8042B01930A4D4FF48071CC
:101B9C00284600F0BFF804464FF47A7382B2294607
:101BAC000548FEF7B0FF204603B0BDE8304004B056
:101BBC00704700BF840000208401002000B587B06E
:101BCC000023029303930493059300930193174806
:101BDC00174A026041F61F4242601022826040F2B6
:101BEC00E732C2600361092242618361FEF7B6FDF0
:101BFC0090B94FF48053029302A90C48FEF7E6FD0E
:101C0C0068B900230093019369460848FEF74CFE1F
:101C1C0040B907B05DF804FBFEF722FBE9E7FEF7DD
:101C2C001FFBEEE7FEF71CFBF3E700BFC80100202B
:101C3C00002C014002680E4B9A4200D0704700B550
:101C4C0083B003F564439A6942F400629A619B691C
:101C5C0003F400630193019B002211461920FFF746
:101C6C00ABFE1920FFF7E0FE03B05DF804FB00BFEC
:101C7C00002C01400C480D490D4A002302E0D458B9
:101C8C00C4500433C4188C42F9D30A4A0A4C0023BA
:101C9C0001E013600432A242FBD3FFF7F7FE00F021
:101CAC004FF8FEF717FB7047000000206000002083
:101CBC0000280008600000205C030020FEE730B51F
:101CCC001446002C05461A469BB005DA8B2303609C
:101CDC004FF0FF301BB030BD4FF40273ADF80C3039
:101CEC000CBF234604F1FF33029305934FF6FF73A9
:101CFC0000910491ADF80E3069461E9B00F08AF9F4
:101D0C00431CBCBF8B232B60002CE3D00022009B18
:101D1C001A70DFE707B5009313460A4601460348DD
:101D2C000068FFF7CCFF03B05DF804FB5C000020FB
:101D3C0003460244934200D1704703F8011BF9E7B4
:101D4C0070B500260C4D0D4C641BA410A64209D195
:101D5C0000F07EFC00260A4D0A4C641BA410A6421F
:101D6C0005D170BD55F8043B98470136EEE755F8A0
:101D7C00043B98470136F2E7F8270008F8270008DB
:101D8C00F8270008FC2700087047704738B505464F
:101D9C00002940D051F8043C0C1F002BB8BFE418AC
:101DAC0000F0D2F81C4A136833B9636014602846FB
:101DBC00BDE8384000F0CEB8A34208D920682118FD
:101DCC008B4201BF19685B6809182160EDE71A4660
:101DDC005B680BB1A342FAD911685018A0420BD121
:101DEC0020680144501883421160E0D118685B6888
:101DFC00084410605360DAE702D90C232B60D6E755
:101E0C00206821188B4201BF19685B680918216092
:101E1C0063605460CBE738BD5003002070B50E4EA4
:101E2C000C463168054611B900F0A0FB3060214624
:101E3C00284600F09BFB431C0AD0C41C24F003046E
:101E4C00A04207D0211A284600F090FB013001D1A6
:101E5C004FF0FF34204670BD540300202DE9F041B3
:101E6C00CD1C25F0030508350C2D38BF0C25002D95
:101E7C00074601DBA94205D90C2300263B603046FE
:101E8C00BDE8F0812F4E00F05FF833681C4644BB70
:101E9C0029463846FFF7C2FF431C04464FD134682D
:101EAC002646002E42D1002C43D0236831463846BA
:101EBC0004EB030800F05AFB80453AD12368033544
:101ECC00ED1A25F0030508350C2D38BF0C253846C6
:101EDC002946FFF7A3FF01302BD023682B44236046
:101EEC000EE02268521B1ED40B2A16D96119A3428C
:101EFC00256018BF5960636808BF316062514B6040
:101F0C00384604F10B0600F025F826F00706231DD1
:101F1C00F21AB4D09B1BA350B1E76268A3420CBF6A
:101F2C0032605A60ECE723466468B0E73446766862
:101F3C00B7E70C2338463B6000F00CF89FE72560B0
:101F4C00DEE700BF500300200148FFF71DBF00BFB4
:101F5C004C0300200148FFF718BF00BF4C030020C2
:101F6C002DE9F0471F468E688246BE420C469046CD
:101F7C000B682CD88A8912F4906F26D06569096990
:101F8C0005EB4505A3EB010905EBD5757B1C4B4413
:101F9C006D109D4238BF1D46530527D52946FFF7C6
:101FAC005DFF064660B34A46216900F0FDFAA3893D
:101FBC0023F4906343F08003A38126614E44266092
:101FCC003E466561A5EB0905A560BE4200D93E46BB
:101FDC0032464146206800F0AFFA0020A3689B1BF4
:101FEC00A360236833442360BDE8F0872A4600F0E1
:101FFC00E9FA06460028E0D150462169FFF7C6FEF3
:10200C000C23CAF80030A3894FF0FF3043F0400393
:10201C00A381E9E72DE9F04F98468B8907461B060B
:10202C000D4614469DB00ED50B6963B94021FFF7E0
:10203C0015FF2860286120B90C233B604FF0FF305E
:10204C00D0E040236B610023099320238DF82930C5
:10205C0030234FF00109CDF80C80DFF8A0818DF80A
:10206C002A3023469A4613F8012B0AB1252AF9D1B6
:10207C00BAEB040B0BD05B46224629463846FFF7D9
:10208C006FFF013000F0A980099A5A4409929AF81E
:10209C000030002B00F0A18000234FF0FF32CDE97F
:1020AC0005230AF1010A049307938DF853301A9310
:1020BC005446052214F8011B504800F067FA049AA4
:1020CC00D8B9D00644BF20238DF85330110744BF34
:1020DC002B238DF853309AF800302A2B15D0544608
:1020EC0000204FF00A0C079A214611F8013B303BB7
:1020FC00092B4DD9B0B1079214E0A0EB080309FAF3
:10210C0003F31343A2460493D2E7039B191D1B68E8
:10211C000391002BBBBF5B4242F002020793079373
:10212C00B8BF049223782E2B0CD163782A2B34D190
:10213C00039B02341A1D1B680392002BB8BF4FF08F
:10214C00FF330593DFF8B8A003225046217800F046
:10215C001DFA38B14022049BA0EB0A0082401343C5
:10216C000134049314F8011B062226488DF828101C
:10217C0000F00CFA002838D0234B1BBB039B073311
:10218C0023F0070308330393099B3344099368E74F
:10219C000C4601200CFB0232A6E700234FF00A0C80
:1021AC00194601340593204610F8012B303A092AC0
:1021BC0003D9002BC6D00591C4E7044601230CFBC0
:1021CC000121F0E703AB00932A4638460F4B04A9D4
:1021DC00AFF30080421C0646D6D1AB895B063FF5B7
:1021EC002DAF09981DB0BDE8F08F03AB00932A46C4
:1021FC003846064B04A900F07DF8EBE7C42700082D
:10220C00CA270008CE270008000000006D1F000838
:10221C002DE9F047164699468A680B6907469342A2
:10222C00B8BF1346336091F843200C46DDF820808C
:10223C000AB1013333602368990642BF3368023315
:10224C003360256815F0060506D104F1190AE36818
:10225C0032689B1AAB422BDC94F84320131E226885
:10226C0018BF0123920630D44946384604F1430284
:10227C00C047013023D02368226903F00603042BE6
:10228C0014BF002533684FF0000608BFE56804F161
:10229C001A0408BFED1A54F8123C08BF25EAE5757C
:1022AC009342C4BF9B1AED18B5421AD1002008E026
:1022BC000123524649463846C047013003D14FF0FE
:1022CC00FF30BDE8F0870135C1E73020E11881F817
:1022DC0043005A1C94F845102244023382F84310F0
:1022EC00C2E70123224649463846C0470130E6D0B2
:1022FC000136D9E72DE9FF470F7E9146782F8046AE
:10230C000C469A460C9D01F1430207D8622F0AD85D
:10231C00002F00F0D580582F00F0C18004F1420549
:10232C0084F842703AE0A7F16303152BF6D801A1AB
:10233C0051F823F099230008AD2300082923000845
:10234C00292300082923000829230008AD230008AD
:10235C002923000829230008292300082923000821
:10236C00B3240008D92300086D2400082923000891
:10237C0029230008D524000829230008D9230008A4
:10238C002923000829230008752400082B681A1D2E
:10239C001B682A6004F1420584F842300123A0E056
:1023AC0020682B68070603F10401296001D51E681B
:1023BC0003E04606FBD5B3F90060002E03DA2D23AB
:1023CC00764284F843300A23594812E02B6820687F
:1023DC00191D2960050601D51E6802E04106FBD5D2
:1023EC001E886F2F0CBF08230A235148002184F844
:1023FC0043106568002DA8BF2168A560A4BF21F01B
:10240C00040121600EB9002D4BD01546B6FBF3F13B
:10241C0003FB1167C75D05F8017D3746BB420E46CD
:10242C00F4D9082B0BD12368DE0708D52369616822
:10243C009942DEBF302305F8013C05F1FF35521BF4
:10244C0022614B4621464046CDF800A003AAFFF777
:10245C00DFFE01304AD14FF0FF3004B0BDE8F08709
:10246C00236843F0200323607827324884F84570B2
:10247C00236829681F0651F8046B02D45F0648BF15
:10248C00B6B2DF0748BF43F02003296048BF236082
:10249C001EB9236823F0200323601023A6E72448E9
:1024AC00E4E71546BDE72B682668181D61692860AE
:1024BC0035061B6801D5196002E07006FBD5198042
:1024CC00002315462361BCE72B6800211A1D2A60E6
:1024DC001D686268284600F059F808B1401B60601E
:1024EC0063682361002384F84330AAE72A464946EF
:1024FC0040462369D0470130ADD023689B0713D4E5
:10250C00E068039B9842B8BF1846A6E70123324601
:10251C0049464046D04701309DD00135E3680399C8
:10252C005B1AAB42F2DCEBE7002504F11906F5E788
:10253C00D5270008E6270008884210B501EB0204F5
:10254C0002D98442234607D8431EA14208D011F871
:10255C00012B03F8012FF8E7014602448A4200D10F
:10256C0010BD13F8014D02F8014DF7E738B5002303
:10257C00054D044608462B6000F05CF8431C02D164
:10258C002B6803B1236038BD48030020034610B507
:10259C00C9B202449342184601D1002003E00478EA
:1025AC0001338C42F6D110BD0A44914200F1FF3345
:1025BC0000D1704710B511F8014B914203F8014F4F
:1025CC00F9D110BD2DE9F041804614460E4621B9D3
:1025DC001146BDE8F041FFF741BC2AB9FFF7D6FB25
:1025EC0025462846BDE8F08100F01BF884420746DA
:1025FC0002D8B4EB500F12D821464046FFF72EFC00
:10260C0005460028EDD0BC422246314628BF3A464A
:10261C00FFF7CAFF31464046FFF7B8FBE1E7354606
:10262C00DFE751F8043C181F002BBCBF0B58C01837
:10263C0070470000044A05491368002B08BF0B467D
:10264C00184410601846704758030020600300209F
:10265C00F8B500BFF8BC08BC9E467047F8B500BF83
:08266C00F8BC08BC9E46704753
:1026740053657420706572696F6420746F202564DB
:10268400206D730D0A000000537461727420776F1B
:10269400726B20666F72202564206D730D0A000032
:1026A400576F726B20646F6E650D0A005B45727222
:1026B4006F725D0D0A000000506F77657220636FC2
:1026C4006E74726F6C6C657220746573740D0A009D
:1026D40053746172742074696D6572206661696CEB
:1026E40065640D0A00000000537461727420756102
:1026F4007274206661696C65640D0A005B50415513
:1027040053455D20506175736520776F726B0D0AB8
:10271400000000005B50415553455D2057616B65D7
:102724002075702066726F6D20736C656570206D06
:102734006F64650D0A0000005B49444C455D20450B
:102744006E74657220736C656570206D6F64650DC1
:102754000A0000005B49444C455D2057616B6520CD
:1027640075702066726F6D20736C656570206D6F77
:1027740064650D0A000000005B574F524B5D204416
:102784006F20776F726B20666F72202564206D73E3
:102794000D0A000002030405060708090A0B0C0DC4
:1027A4000E0F1010000000000000000000000000E8
:1027B40001020304060708090000000001020304E3
:1027C400232D302B2000686C4C0065666745464716
:1027D4000030313233343536373839414243444599
:1027E4004600303132333435363738396162636408
:0427F4006566000016
:0427F800750100085F
:0427FC004D01000883
:10280000E803000001000000100000000024F400B4
:10281000000000001002002078020020E0020020EA
:1028200000000000000000000000000000000000A8
:102830000000000000000000000000000000000098
:102840000000000000000000000000000000000088
:102850000000000000000000000000001000002048
:0400000508001C8152
:00000001FF
